:03000000020800F3
:0C080000787FE4F6D8FD75811F020847E0
:1009D50020202053544F5020574154434820202075
:0C09E500003031323334353637383900F9
:100A0A00110820202020202030303A3030202020A9
:030A1A0020200099
:10094C00E4F5A0C282C280C2817F38FE120A1E1258
:10095C0009B17F067E00120A1E1209B17F0C7E00BF
:10096C00120A1E1209B17F017E00120A1E1209B171
:07097C007F807E00020A1ECD
:0709AE00120A1E7F047E0007
:1009B500E4FDFCC3ED9FEC9E5015E4FBFA0BBB0078
:0F09C500010ABA01F8BB7EF50DBD00010C80E4FC
:0109D4002200
:100A1E00C280C281D2828FA07F0A7E001209B5C227
:020A2E00822222
:100A3000D280C281D2828FA07F0A7E001209B5C205
:020A4000822210
:060983007B007A007908F8
:100989008B1D8A1E891FAB1DAA1EA91F1209F160A2
:1009990013051FE51F7002051E14F91209F1FF1254
:0509A9000A3080E2228B
:03000B0002088C5C
:10088C00C0E0C0F0C083C082C0D075D000C001C031
:10089C0002C003C004C005C006C00705197FC07E96
:1008AC0000120A1EE51975F03C84AFF0EF75F00AE2
:1008BC0084E5F09009E693F512EF75F00A8493F550
:1008CC001175103AE51975F03C84FF75F00A84E552
:1008DC00F093F50FEF75F00A8493F50E12098375FA
:1008EC008CFF758AC4D007D006D005D004D003D0B5
:0E08FC0002D001D0D0D082D083D0F0D0E03234
:03001B00020A4294
:090A4200B2B4758BE6758DBE326D
:10090A00E4F51975900F758915758CFF758AF2755E
:10091A008BE6758DBED2A9D2ABD2AFD28E7F80FEC6
:10092A001209AE7BFF7A0979D51209891209B17FBA
:10093A00C01209AE120983309004D28C80F9C28C9D
:02094A0080F536
:10080C0002090AE493A3F8E493A34003F68001F2EF
:10081C0008DFF48029E493A3F85407240CC8C333ED
:10082C00C4540F4420C8834004F456800146F6DFBC
:10083C00E4800B0102040810204080900A0AE47E38
:10084C00019360BCA3FF543F30E509541FFEE493B1
:10085C00A360010ECF54C025E060A840B8E493A378
:10086C00FAE493A3F8E493A3C8C582C8CAC583CAA3
:10087C00F0A3C8C582C8CAC583CADFE9DEE780BE5B
:010A1D0000D8
:1009F100BB010689828A83E0225002E722BBFE0204
:090A0100E32289828A83E4932236
:00000001FF
