:03000000020B45AB
:0C0B4500787FE4F6D8FD75811F020800DF
:100A3500454E5445522050415353574F52443A0066
:100A4500434F52524543542050415353574F5244FC
:100A550000414343455353204752414E54454400BA
:100A650057524F4E472050415353574F5244004120
:100A750043434553532044454E49454400313233A1
:100A85004134353642373839432A302344313541EC
:050A9500382A4436235D
:100A9A00E4F5A0C282C280C2817F38FE120B211205
:100AAA000AD87F067E00120B21120AD87F0C7E001C
:100ABA00120B21120AD87F017E00120B21120AD8CA
:070ACA007F807E00020B217A
:0B0AD1007F807E00120B217F047E005E
:100ADC00E4FDFCC3ED9FEC9E5015E4FBFA0BBB0050
:0F0AEC00010ABA01F8BB7EF50DBD00010C80E4D4
:010AFB0022D8
:100B2100C280C281D2828FA07F0A7E00120ADCC2FB
:020B310082221E
:100B3300D280C281D2828FA07F0A7E00120ADCC2D9
:020B430082220C
:100AFC008B1D8A1E891FAB1DAA1EA91F120A1C6002
:100B0C0013051FE51F7002051E14F9120A1CFF12B3
:050B1C000B3380E22212
:1008000078137C007D007BFF7A0A79927E007F0856
:100810001209F6E4F51BF51CF590120A9A120AD19A
:100820007BFF7A0A7935120AFCE4F50875B00FE50A
:10083000B0B40FFBE5B0640F60FA7F147E00120ABB
:10084000DCAFB0E5B0640F60E675B0EFAFB0530752
:100850000FEF640F601C8E0ABF0703E4F509BF0B9E
:1008600003750901BF0D03750902BF0E1175090358
:10087000800CE5B025E0440FF5B00EBE04CEE50ACD
:1008800025E025E02482F582E4340AF583E582251B
:1008900009F582E43583F583E493FF740B2508F8AA
:1008A000A6077FC0120AD3E508C3940750097B004E
:1008B0007A00790B120AFC0508E508C39408500376
:1008C00002082CE4F50874132508F8E6FF740B25DC
:1008D00008F8E66F6008051CE51C7002051B05089A
:1008E000E508B408E1E51C451B701C120A9A120ABF
:1008F000D17BFF7A0A7945120AFC7FC0120AD37BAA
:10090000FF7A0A7956801A120A9A120AD17BFF7A64
:100910000A7965120AFC7FC0120AD37BFF7A0A7932
:0609200074120AFC80FEC7
:10092600E709F608DFFA8046E709F208DFFA803EB3
:1009360088828C83E709F0A3DFFA8032E309F608A0
:10094600DFFA8078E309F208DFFA807088828C8308
:10095600E309F0A3DFFA806489828A83E0A3F608BC
:10096600DFFA805889828A83E0A3F208DFFA804C96
:1009760080D280FA80C680D4806980F2803380106D
:1009860080A680EA809A80A880DA80E280CA8033D6
:1009960089828A83ECFAE493A3C8C582C8CCC5834E
:1009A600CCF0A3C8C582C8CCC583CCDFE9DEE7801E
:1009B6000D89828A83E493A3F608DFF9ECFAA9F09D
:1009C600EDFB2289828A83ECFAE0A3C8C582C8CCF3
:1009D600C583CCF0A3C8C582C8CCC583CCDFEADE0C
:1009E600E880DB89828A83E493A3F208DFF980CC6E
:1009F60088F0EF60010E4E60C388F0ED2402B40467
:100A06000050B9F582EB2402B4040050AF2323450D
:060A1600822390097673B3
:100A1C00BB010689828A83E0225002E722BBFE02D8
:090A2C00E32289828A83E493220B
:00000001FF
