:030000000200708B
:10007000741375F00D7571AD1415F0A4F57011843D
:1000800011B580FE7A01E5708AF0A40411940A701B
:10009000F58C7222AB717C00C3C0E0E5F0600CD03F
:1000A000E09B0C50F3400015F080EDD0E0C39B0CBA
:1000B00050FB2B1C22759000E572A2E49294A2E5FD
:1000C0009295A2E69296A2E7929711F711F711F78F
:1000D00011F711F775900011F7A2E09294A2E19246
:1000E00095A2E29296A2E3929711F711F711F711F8
:1000F000F711F70200B5227A647D0AC005C002310B
:100100000ADAFCD002DDF6D00522C00078043115F1
:0E011000D8FCD00022C00078F4D8FED0002227
:00000001FF
