:03000000020A08E9
:0C0A0800787FE4F6D8FD758120020A4FCB
:10080000456E746572205265736F757263652074EE
:100810006F20626520626F72726F7765643A00457F
:100820006E746572205175616E746974793A005204
:100830006571756573746564207265736F75726335
:100840006520616C6C6F6361746564210052657131
:10085000756573746564207265736F757263652066
:100860006E6F7420617661696C61626C652E2E2EEC
:1008700000456E746572205265736F7572636520F2
:10088000746F2062652072657475726E65643A00DB
:1008900020596F752063616E927420726574757251
:1008A0006E207768617420796F7520646F6E927422
:1008B00020686176652E2E2E0052657475726E6505
:1008C00064207265736F7572636520726563656914
:1008D000766564210052657475726E656420726578
:1008E000736F75726365206F7574206F6620626F19
:1008F000756E64732E2E2E005265736F757263656C
:100900007320617661696C61626C653A2044534F73
:100910002D00204146472D200020444D4D2D200024
:10092000204450532D000D0A005072657373204906
:1009300020666F7220497373756520616E64205262
:0C09400020666F722052657475726E00A4
:100BC900C101C100040835353836041035353836C9
:100BDA00758920758DF3759850D28ED2ACD2AF221A
:080C04008F993001FDC20122AD
:060B85007BFF7A08791FD6
:100B8B008B168A178918AB16AA17A918120BB06007
:100B9B00130518E5187002051714F9120BB0FF12A4
:050BAB000C0480E222B1
:090BFA00E4FF3000FDC200AF99D8
:010C030022CE
:03002300020BEAE3
:100BEA00309905C299D20132309804C298D20032A3
:100A94007BFF7A087900120B8B120BFAEF24D0F546
:100AA4000FE434FFF50EE50F6401450E6018E50F01
:100AB4006402450E6010E50F6403450E6008E50FFF
:100AC4006404450E70D3120B85120BFAEF24D0F593
:100AD40015E434FFF514740F250FF8E624D0F50D52
:100AE400E434FFF50CC3E50D9515E5146480F8E5D1
:100AF4000C6480987BFF40177A08792F120B8BC304
:100B0400E50D95152430FF740F250FF8A607227AFA
:070B140008794D120B8B2242
:10094C007BFF7A0879718023120BFAEF24D0F50F14
:10095C00E434FFF50EAF0F74072FF8E6FE740F2F7B
:10096C00F8E6B5060B7BFF7A087990120B8B80D8D2
:10097C00E50F6401450E6018E50F6402450E60102A
:10098C00E50F6403450E6008E50F6404450E70B86E
:10099C00120B85120BFAEF24D0F515E434FFF51485
:1009AC00AF0F740F2FF8E624D0F50DE434FFF50CDF
:1009BC0074072FF8E624D0FFE434FFFEE50D25156F
:1009CC00FDE50C3514FCD3ED9FEE6480F8EC6480EF
:1009DC00987BFF501F7A0879B9120B8BE50D251502
:1009EC002430FFAE0F740F2EF8A607740F2EF8E606
:0C09FC00FF020C047A0879D5120B8B2244
:100B1B00120BDA7BFF7A0879F8120B8BAF10120CE1
:100B2B00047BFF7A097912120B8BAF11120C047B29
:100B3B00FF7A097919120B8BAF12120C047BFF7A17
:100B4B00097920120B8BAF13120C047BFF7A0979F6
:100B5B0026120B8B7BFF7A097929120B8B7BFF7A81
:100B6B00097926120B8B120BFABF4903120A941246
:0A0B7B000BFABF529E12094C80993C
:100A1400020B1BE493A3F8E493A34003F68001F2D2
:100A240008DFF48029E493A3F85407240CC8C333E3
:100A3400C4540F4420C8834004F456800146F6DFB2
:100A4400E4800B0102040810204080900BC9E47E6E
:100A5400019360BCA3FF543F30E509541FFEE493A7
:100A6400A360010ECF54C025E060A840B8E493A36E
:100A7400FAE493A3F8E493A3C8C582C8CAC583CA99
:100A8400F0A3C8C582C8CAC583CADFE9DEE780BE51
:010BD900001B
:100BB000BB010689828A83E0225002E722BBFE0243
:090BC000E32289828A83E4932276
:00000001FF
