:03000000020BAC44
:0C0BAC00787FE4F6D8FD758147020BF35A
:100D5D0050524F443A200054494D453A20002075D9
:030D6D00732000F0
:100D4400043B000038EB043F000021BC0A3131327F
:080D5400353833353135360026
:100CA000E4F5A0C282C280C2817F38FE120D7012AC
:100CB0000CFC7F067E00120D70120CFC7F0C7E0077
:100CC000120D70120CFC7F017E00120D70120CFCD4
:070CD0007F807E00020D7021
:040CFC007F047E00F3
:100D0000E4FDFCC3ED9FEC9E5015E4FBFA0BBB0029
:0F0D1000010ABA01F8BB7EF50DBD00010C80E4AD
:010D1F0022B1
:100B06008E438F448B458A4689477C277D10120881
:100B16004DEF2430120819AE43AF447C277D1012E6
:100B2600084D7E037FE8CFCDCFCECCCE12084DEF59
:100B36002430AB45AA46A94790000112082BAE43C4
:100B4600AF447C037DE812084D7E007F64CFCDCF95
:100B5600CECCCE12084DEF2430AB45AA46A947901D
:100B6600000212082BAE43AF447C007D6412084D90
:100B76007E007F0ACFCDCFCECCCE12084DEF2430EB
:100B8600AB45AA46A94790000312082BAE43AF44D3
:100B96007C007D0A12084DED2430AB45AA46A947D4
:060BA60090000402082B80
:100D7000C280C281D2828FA07F0A7E00120D00C283
:020D80008222CD
:100D8200D280C281D2828FA07F0A7E00120D00C261
:020D92008222BB
:100CD7008B438A448945AB43AA44A945120800605F
:100CE700130545E5457002054414F9120800FF1283
:050CF7000D8280E222E5
:03000B00020D20C3
:100D2000C0E0C0D0E5302401F530E4352FF52FE4E4
:100D3000352EF52EE4352DF52D758CFF758AFED0F8
:040D4000D0D0E032FD
:1009BF00D28CE47B0AFAF9F8AF3EAE3DAD3CAC3BCE
:1009CF0012092DAC00AD01AE02AF038F108E0F8D4B
:1009DF000E8C0DE47B0AFAF9F8AF3EAE3DAD3CACA0
:1009EF003B12092D8F188E178D168C15E47B0AFA82
:1009FF00F9F8AF42AE41AD40AC3F12092DAC00AD9E
:100A0F0001AE02AF038F148E138D128C11E47B0A8B
:100A1F00FAF9F8AF42AE41AD40AC3F12092D8F1C31
:100A2F008E1B8D1A8C19AF14AE13AD12AC11AB1007
:100A3F00AA0FA90EA80D1208A28F208E1F8D1E8C33
:100A4F001DAF10AE0FAD0EAC0DAB1CAA1BA91AA893
:100A5F00191208A2C004C005C006C007AF14AE1318
:100A6F00AD12AC11AB18AA17A916A8151208A2D06F
:100A7F0003D002D001D000EF2BF524EE3AF523ED91
:100A8F0039F522EC38F521AF1CAE1BAD1AAC19AB02
:100A9F0018AA17A916A8151208A28F288E278D2617
:100AAF008C25E47F0AFEFDFCAB24AA23A922A821F2
:100ABF001208A2EF2520FFEE351FFEED351EFDECCF
:100ACF00351DFCC004C005C006C007E47F64FEFDF1
:100ADF00FCAB28AA27A926A8251208A2D003D0026A
:100AEF00D001D000EF2BF52CEE3AF52BED39F52A8E
:070AFF00EC38F529C28C223E
:100C3800E4F530F52FF52EF52D758901758CFF75C6
:100C48008AFED2A9D2AF7F80FE120D70120CFC7BF7
:100C5800FF7A0D795D120CD7120CFC1209BFAE2F6A
:100C6800AF307B007A007908120B067B007A007996
:100C780031120CD77FC07E00120D707BFF7A0D7980
:100C880064120CD77B007A007908120CD77BFF7AA4
:080C98000D796B120CD780FEF0
:100BB800020C38E493A3F8E493A34003F68001F20F
:100BC80008DFF48029E493A3F85407240CC8C3333E
:100BD800C4540F4420C8834004F456800146F6DF0D
:100BE800E4800B0102040810204080900D44E47E4C
:100BF800019360BCA3FF543F30E509541FFEE49302
:100C0800A360010ECF54C025E060A840B8E493A3C8
:100C1800FAE493A3F8E493A3C8C582C8CAC583CAF3
:100C2800F0A3C8C582C8CAC583CADFE9DEE780BEAB
:010D5C000096
:10080000BB010689828A83E0225002E722BBFE02F6
:09081000E32289828A83E4932229
:10081900BB010689828A83F0225002F722BBFE01BE
:02082900F322B8
:10082B00F8BB010DE58229F582E5833AF583E8F003
:10083B00225006E92582C8F622BBFE05E92582C8AF
:02084B00F22297
:10084D00BC000BBE0029EF8DF084FFADF022E4CC8F
:10085D00F875F008EF2FFFEE33FEEC33FCEE9DEC58
:10086D00984005FCEE9DFE0FD5F0E9E4CEFD22ED9E
:10087D00F8F5F0EE8420D21CFEADF075F008EF2FE8
:10088D00FFED33FD4007985006D5F0F222C398FDD9
:05089D000FD5F0EA2276
:1008A200E88FF0A4CC8BF0A42CFCE98EF0A42CFCF5
:1008B2008AF0EDA42CFCEA8EF0A4CDA8F08BF0A473
:1008C2002DCC3825F0FDE98FF0A42CCD35F0FCEBD2
:1008D2008EF0A4FEA9F0EB8FF0A4CFC5F02ECD3997
:0F08E200FEE43CFCEAA42DCE35F0FDE43CFC2204
:1008F10075F008758200EF2FFFEE33FECD33CDCCBE
:1009010033CCC58233C5829BED9AEC99E582984040
:100911000CF582EE9BFEED9AFDEC99FC0FD5F0D61D
:10092100E4CEFBE4CDFAE4CCF9A88222B800C1B947
:100931000059BA002DEC8BF084CFCECDFCE5F0CB85
:10094100F97818EF2FFFEE33FEED33FDEC33FCEBBE
:1009510033FB10D703994004EB99FB0FD8E5E4F979
:10096100FA227818EF2FFFEE33FEED33FDEC33FC66
:10097100C933C910D7059BE99A4007EC9BFCE99A5A
:10098100F90FD8E0E4C9FAE4CCFB2275F010EF2F9F
:10099100FFEE33FEED33FDCC33CCC833C810D7079F
:1009A1009BEC9AE899400AED9BFDEC9AFCE899F8DA
:0E09B1000FD5F0DAE4CDFBE4CCFAE4C8F9226D
:00000001FF
