:03000000020AD31E
:0C0AD300787FE4F6D8FD7581120208005F
:1009990053544152542050524F4752414D004649F9
:1009A90052535420494E505554004E4558542049ED
:1009B9004E50555400534F5254494E472E2E2E0037
:1009C900534F5254494E4700434F4D504C4554459F
:1009D90044004E554D42455220544F204245005344
:1009E900454152434845440054484520494E4445F1
:1009F90058204953004E554D424552004E4F542000
:060A0900464F554E44006B
:100A0F00E4F5A0C282C280C2817F38FE120AAF1203
:100A1F000A4D7F067E00120AAF120A4D7F0C7E0030
:100A2F00120AAF120A4D7F017E00120AAF120A4D51
:070A3F007F807E00020AAF78
:0B0A46007F807E00120AAF7F047E005C
:100A5100E4FDFCC3ED9FEC9E5015E4FBFA0BBB00DB
:0F0A6100010ABA01F8BB7EF50DBD00010C80E45F
:010A70002263
:100AAF00C280C281D2828FA07F0A7E00120A51C2F9
:020ABF00822291
:100AC100D280C281D2828FA07F0A7E00120A51C2D7
:020AD10082227F
:100A71008B108A118912AB10AA11A912120A966061
:100A8100130512E5127002051114F9120A96FF12EC
:050A91000AC180E22211
:10080000E4F50E120A0F120A4675900F7BFF7A0963
:100810007999120A717F887E13120A51120A0F12F7
:100820000A467BFF7A0979A7120A717F887E131224
:100830000A51E4F50F7408250FF8A6907408250FE7
:10084000F8E6FFC454F0F59043900F120A0F120A15
:1008500046E50F7BFFB404067A0979BE80047A0965
:1008600079B3120A717F887E13120A5153900FE5F3
:100870000F64047020120A0F120A467BFF7A09796E
:10088000C9120A71120A4D7FC0120AAF7BFF7A09A2
:1008900079D1120A717FE87E03120A51050FE50F24
:1008A000D394044090E4F50FE4FFC37404950FFE65
:1008B000EFC39E501F74092FF8E6FE74082FF8E668
:1008C000FDD39E400C74092FF8A60574082FF8A6D6
:1008D000060F80D6050FE50FB404CDE4F50F7408BC
:1008E000250FF8E6C454F0F5907F887E13120A5164
:1008F00075900F7FE87E03120A51050FE50FD39420
:100900000440DB7590FF120A0F120A467BFF7A093A
:1009100079DB120A71120A4D7FC0120AAF7BFF7A8F
:100920000979E8120A717F887E13120A51E5905402
:100930000FF50DF590120A0F7FE87E03120A51E4BD
:10094000F50F7408250FF8E6B50D05E50F04F50E53
:10095000050FE50FB405EBE50E6015120A467BFFA7
:100960007A0979F1120A71E50EC454F0F5908020ED
:100970007590FF120A467BFF7A0979FE120A7112FE
:100980000A4D7FC0120AAF7BFF7A0A7905120A71FD
:090990007F887E13120A5180FEDB
:100A9600BB010689828A83E0225002E722BBFE025E
:090AA600E32289828A83E4932291
:00000001FF
