:03000000020BB739
:0C0BB700787FE4F6D8FD758147020BFE44
:100D680050524F443A200054494D453A20002075CE
:030D7800732000E5
:100D4F00043B000038EB043F000021BC0A31313274
:080D5F0035383335313536001B
:100CAB00E4F5A0C282C280C2817F38FE120D7B1296
:100CBB000D077F067E00120D7B120D077F0C7E0049
:100CCB00120D7B120D077F017E00120D7B120D079B
:070CDB007F807E00020D7B0B
:040D07007F047E00E7
:100D0B00E4FDFCC3ED9FEC9E5015E4FBFA0BBB001E
:0F0D1B00010ABA01F8BB7EF50DBD00010C80E4A2
:010D2A0022A6
:100B11008E438F448B458A4689477C277D10120876
:100B21004DEF2430120819AE43AF447C277D1012DB
:100B3100084D7E037FE8CFCDCFCECCCE12084DEF4E
:100B41002430AB45AA46A94790000112082BAE43B9
:100B5100AF447C037DE812084D7E007F64CFCDCF8A
:100B6100CECCCE12084DEF2430AB45AA46A9479012
:100B7100000212082BAE43AF447C007D6412084D85
:100B81007E007F0ACFCDCFCECCCE12084DEF2430E0
:100B9100AB45AA46A94790000312082BAE43AF44C8
:100BA1007C007D0A12084DED2430AB45AA46A947C9
:060BB10090000402082B75
:100D7B00C280C281D2828FA07F0A7E00120D0BC26D
:020D8B008222C2
:100D8D00D280C281D2828FA07F0A7E00120D0BC24B
:020D9D008222B0
:100CE2008B438A448945AB43AA44A9451208006054
:100CF200130545E5457002054414F9120800FF1278
:050D02000D8D80E222CE
:03000B00020D2BB8
:100D2B00C0E0C0D0E5302401F530E4352FF52FE4D9
:100D3B00352EF52EE4352DF52D758CFF758AFAD0F1
:040D4B00D0D0E032F2
:1009BF00D28CE47B0AFAF9F8AF3EAE3DAD3CAC3BCE
:1009CF0012092DAC00AD01AE02AF038F108E0F8D4B
:1009DF000E8C0DE47B0AFAF9F8AF3EAE3DAD3CACA0
:1009EF003B12092D8F188E178D168C15E47B0AFA82
:1009FF00F9F8AF42AE41AD40AC3F12092DAC00AD9E
:100A0F0001AE02AF038F148E138D128C11E47B0A8B
:100A1F00FAF9F8AF42AE41AD40AC3F12092D8F202D
:100A2F008E1F8D1E8C1DAF14AE13AD12AC11AB10FB
:100A3F00AA0FA90EA80D1208A28F1C8E1B8D1A8C3F
:100A4F0019E5142520FBE513351FFAE512351EF9BC
:100A5F00E511351DF8E5182510FFE517350FFEE5F3
:100A6F0016350EFDE515350DFC1208A28F248E23C9
:100A7F008D228C21AF20AE1FAD1EAC1DAB18AA1757
:100A8F00A916A8151208A28F288E278D268C25C38C
:100A9F00E524951CFFE523951BFEE522951AFDE540
:100AAF00219519FCC3EF9528FFEE9527FEED9526AE
:100ABF00FDEC9525FCE47B0AFAF9F81208A2EF2564
:100ACF001CFFEE351BFEED351AFDEC3519FCC0048D
:100ADF00C005C006C007E47F64FEFDFCAB28AA2753
:100AEF00A926A8251208A2D003D002D001D000EF6A
:100AFF002BF52CEE3AF52BED39F52AEC38F529C20A
:020B0F008C2236
:100C4300E4F530F52FF52EF52D758901758CFF75BB
:100C53008AFAD2A9D2AF7F80FE120D7B120D077BD9
:100C6300FF7A0D7968120CE2120D071209BFAE2F3D
:100C7300AF307B007A007908120B117B007A007980
:100C830031120CE27FC07E00120D7B7BFF7A0D795F
:100C93006F120CE27B007A007908120CE27BFF7A78
:080CA3000D7976120CE280FECF
:100BC300020C43E493A3F8E493A34003F68001F2F9
:100BD30008DFF48029E493A3F85407240CC8C33333
:100BE300C4540F4420C8834004F456800146F6DF02
:100BF300E4800B0102040810204080900D4FE47E36
:100C0300019360BCA3FF543F30E509541FFEE493F6
:100C1300A360010ECF54C025E060A840B8E493A3BD
:100C2300FAE493A3F8E493A3C8C582C8CAC583CAE8
:100C3300F0A3C8C582C8CAC583CADFE9DEE780BEA0
:010D6700008B
:10080000BB010689828A83E0225002E722BBFE02F6
:09081000E32289828A83E4932229
:10081900BB010689828A83F0225002F722BBFE01BE
:02082900F322B8
:10082B00F8BB010DE58229F582E5833AF583E8F003
:10083B00225006E92582C8F622BBFE05E92582C8AF
:02084B00F22297
:10084D00BC000BBE0029EF8DF084FFADF022E4CC8F
:10085D00F875F008EF2FFFEE33FEEC33FCEE9DEC58
:10086D00984005FCEE9DFE0FD5F0E9E4CEFD22ED9E
:10087D00F8F5F0EE8420D21CFEADF075F008EF2FE8
:10088D00FFED33FD4007985006D5F0F222C398FDD9
:05089D000FD5F0EA2276
:1008A200E88FF0A4CC8BF0A42CFCE98EF0A42CFCF5
:1008B2008AF0EDA42CFCEA8EF0A4CDA8F08BF0A473
:1008C2002DCC3825F0FDE98FF0A42CCD35F0FCEBD2
:1008D2008EF0A4FEA9F0EB8FF0A4CFC5F02ECD3997
:0F08E200FEE43CFCEAA42DCE35F0FDE43CFC2204
:1008F10075F008758200EF2FFFEE33FECD33CDCCBE
:1009010033CCC58233C5829BED9AEC99E582984040
:100911000CF582EE9BFEED9AFDEC99FC0FD5F0D61D
:10092100E4CEFBE4CDFAE4CCF9A88222B800C1B947
:100931000059BA002DEC8BF084CFCECDFCE5F0CB85
:10094100F97818EF2FFFEE33FEED33FDEC33FCEBBE
:1009510033FB10D703994004EB99FB0FD8E5E4F979
:10096100FA227818EF2FFFEE33FEED33FDEC33FC66
:10097100C933C910D7059BE99A4007EC9BFCE99A5A
:10098100F90FD8E0E4C9FAE4CCFB2275F010EF2F9F
:10099100FFEE33FEED33FDCC33CCC833C810D7079F
:1009A1009BEC9AE899400AED9BFDEC9AFCE899F8DA
:0E09B1000FD5F0DAE4CDFBE4CCFAE4C8F9226D
:00000001FF
