:030000000200708B
:10007000741375F00D757205AA72A4F570118511CF
:100080008E11D580FE75900F311785907122E57124
:100090007A041199DAFC11B222C0F08571F0A4FF44
:1000A000AEF0D0F0E5F08571F0A48EF025F0F5F01B
:1000B000EF22AB707C00C3C0E0E5F0600CD0E09BA9
:1000C0000C50F3400015F080EDD0E0C39B0C50FBCA
:1000D0002B1CF57322759000E573A2E49294A2E5BF
:1000E0009295A2E69296A2E79297311731173117AF
:1000F000311731177590003117A2E09294A2E19266
:1001000095A2E29296A2E3929731173117311731F7
:100110001731170200D5227A647D0AC005C002316A
:100120002ADAFCD002DDF6D00522C0007804313591
:0E013000D8FCD00022C00078F4D8FED0002207
:00000001FF
