:03000000020917DB
:0C091700787FE4F6D8FD7581110208001D
:1008DE0020202045453333372D323032332020202F
:0508EE00006100620042
:10084000E4F5A0C282C280C2817F38FE1208F31292
:10085000087C7F067E001208F312087C7F0C7E0065
:100860001208F312087C7F017E001208F312087C44
:070870007F807E000208F307
:090877007E001208F37F047E00EC
:10088000E4FDFCC3ED9FEC9E5015E4FBFA0BBB00AE
:0F089000010ABA01F8BB7EF50DBD00010C80E432
:01089F002236
:1008F300C280C281D2828FA07F0A7E00120880C28A
:0209030082224E
:10090500D280C281D2828FA07F0A7E00120880C267
:0209150082223C
:1008A0008B0F8A108911AB0FAA10A9111208C5600D
:1008B000130511E5117002051014F91208C5FF1295
:0508C000090580E222A1
:100800001208407F801208777BFF7A0879DE120891
:10081000A0E4F50EE50E2422FF7408250EF8A607C5
:100820007FC01208777B007A0079081208A07FE861
:100830007E03120880050EE50ED3940540D680FE97
:1008C500BB010689828A83E0225002E722BBFE0231
:0908D500E32289828A83E4932264
:00000001FF
