:03000000020100FA
:0E010000786079707E1F3143318931CB80FEEB
:100130007A647D32C005C00231DCDAFCD002DDF623
:10014000D0052275900F8E90C0E0EE2410FED0E016
:1001500031303130A29092E0A29192E1A29292E2EB
:10016000A29392E38E90C0E0EE2410FED0E03130F6
:100170003130A29092E4A29192E5A29292E6A293EB
:1001800092E7C4F608B864BB22786079707A0A7B7B
:10019000147C1E7F04E6C39A60225005771002018A
:1001A000C6E6C39B601B500577200201C6E6C39CD0
:1001B000500577400201C677800201C67720020110
:1001C000C677400201C60809DFCB2279707590001E
:1001D0008790313009B974F80201CB22C00078044D
:1001E00031E7D8FCD00022C00078F4D8FED000223D
:00000001FF
